:020000040800F2
:10000000B0070020C1010008E7130008C111000873
:10001000E513000809020008C51C000800000000E4
:100020000000000000000000000000000B140008A9
:100030000B02000800000000091400080D1400085D
:10004000DB010008DB010008DB010008DB01000820
:10005000DB010008DB010008DB010008DB01000810
:10006000DB010008DB010008DB010008DB01000800
:10007000DB010008DB010008DB010008DB010008F0
:10008000DB010008DB010008DB010008DB010008E0
:10009000DB010008DB010008DB010008DB010008D0
:1000A000DB010008DB010008DB010008DB010008C0
:1000B000DB010008DB010008DB010008DB010008B0
:1000C000DB010008DB010008DB010008DB010008A0
:1000D000DB010008891B0008B51B0008E11B0008B4
:1000E000DB010008DB010008DB010008DB01000880
:1000F000DB010008DB010008DB010008DB01000870
:10010000DB010008DB010008DB010008DB0100085F
:10011000DB010008DB010008DB010008DB0100084F
:10012000DB010008DB010008DB010008DB0100083F
:10013000DB010008DB010008DB010008DB0100082F
:10014000DB010008DB010008DB010008DB0100081F
:10015000DB010008DB010008DB010008DB0100080F
:10016000DB010008DB010008DB010008DB010008FF
:10017000DB010008DB010008DB01000800000000D3
:10018000DB010008DB010008DB010008DB010008DF
:10019000DB010008DB010008DB010008DB010008CF
:1001A000DB010008DB010008DB010008DFF80CD0F0
:1001B00000F018F800480047951D0008B00700201F
:1001C0000648804706480047FEE7FEE7FEE7FEE7F1
:1001D000FEE7FEE7FEE7FEE7FEE7FEE7C5140008E0
:1001E000AD010008064C074D06E0E06840F0010351
:1001F00094E8070098471034AC42F6D3FFF7DAFFD3
:10020000D41D0008F41D0008FEE77047FEE790F8D3
:100210003510022903D08021416501207047052156
:1002200080F835100068016821F0010101600020AC
:10023000704700002DE9F84FDFF890B100224FF031
:1002400001084FF0030A4FF00F090BF1040E00BF35
:100250000B6808FA02F42340A3426ED14D68022DC8
:1002600001D0122D0ED1D50800EB850CDCF8205002
:100270005607F70E09FA07F6B5430E69BE402E433E
:10028000CCF82060066855000F790AFA05FC07F0E3
:10029000030726EA0C06AF40374307604E68012E7D
:1002A00005D0022E03D0112E01D0122E0ED1876858
:1002B000CE6827EA0C07AE403E4386604668A643F8
:1002C0000C79C4F30014944034434460C4688E68CD
:1002D00024EA0C04AE402643C6604C68E4006FD5A7
:1002E0003B4C256845F480452560246822F00305D1
:1002F00004F480440094374C2E19D6F8084895072A
:100300002F0F09FA07F5AC43334DA84201D1002560
:100310002EE0324DA84201D1012529E0304DA842FE
:1003200001D1022524E02F4DA84201D103251FE071
:100330002D4DA84202D104251AE041E02B4DA842E0
:1003400001D1052514E02A4DA84201D106250FE070
:10035000284DA84201D107250AE0274DA84201D126
:10036000082505E0254DA84201D1092500E00A2510
:10037000BD402543C6F80858DBF800405D464E688E
:100380009C43F60300D51C432C60DEF80040754604
:100390004E689C43B60300D51C432C600B4D0835BA
:1003A0002C684E689C43F60200D51C432C60074D18
:1003B0000C352C684E689C43B60200D51C432C605B
:1003C000521C102AFFF444AFBDE8F88F003C0140F6
:1003D0004438024000300140000002400004024066
:1003E00000080240000C02400010024000140240CD
:1003F00000180240001C024000200240002402407D
:100400000AB1816170470904FBE7000001480068F8
:10041000704700000800002002480168491C016084
:1004200070470000080000200B4810B5016841F437
:1004300000710160016841F480610160016841F46C
:1004400080710160032000F075F8002000F006F8CC
:1004500000F018F8002010BD003C024010B5044622
:1004600007484FF47A710068B0FBF1F000F065FBCB
:1004700000222146501E00F03DF8002010BD000073
:100480000000002010B5032000F054F800221146AF
:100490006FF00B0000F02EF8002211466FF00A00FA
:1004A00000F028F8002211466FF0090000F022F851
:1004B00000221146501F00F01DF800221146101FA7
:1004C00000F018F800221146901E00F013F80022E8
:1004D000BDE810401146501E00F00CB800F01F029D
:1004E000012191404009800000F1E020C0F8001196
:1004F00070470000F0B40E4B1B680C46C3F3022398
:10050000C3F10705042D00D90425191D072901D2BF
:10051000002300E0DB1E012606FA05F1491E2140FA
:1005200099409E40761E16403143F0BC00F05CBFFF
:100530000CED00E0064900F0070208684FF6FF03E3
:10054000184040EA0220034A104308607047000048
:100550000CED00E00000FA052DE9F8431E480168A3
:1005600041F0805101600068012600F08050009049
:10057000300490FAA0F0194FB0FA80F047F82060EC
:10058000FFF744FF05464FF47A78154C05E000BFAD
:10059000FFF73CFF401B404515D86068C003F7D506
:1005A0004FF4003090FAA0F0B0FA80F047F82060E5
:1005B000FFF72CFF0546464608E000BFFFF726FF81
:1005C000401BB04202D90320BDE8F8836068800375
:1005D000F4D50020F8E700004038024000000E4249
:1005E000007000402DE9F047DFF8649105460F46A2
:1005F000D9F8000000F00F01F8B28046B94208D2E5
:10060000014689F80010D9F8000000F00F00B84248
:1006100074D128784F4C800705D52068A96820F050
:10062000F000084320602878C00759D0494968681D
:10063000083901281AD002281BD0032819D00968CC
:10064000890700295ADA216821F00301014321605A
:10065000FFF7DCFE6968064641F28830012911D0B7
:1006600002291DD00329824627D035E00968890375
:10067000E7E709688901E4E7FFF7C8FE811B5145F8
:1006800001D926E082462068C0F381000128F3D119
:1006900026E000BFFFF7BAFE811B514501D918E0E3
:1006A00082462068C0F381000228F3D118E000BF21
:1006B000FFF7ACFE811B51450BD82068C0F38100C9
:1006C0000328F5D10CE000BFFFF7A0FE811B5145C8
:1006D00002D90320BDE8F087206810F00C0FF3D199
:1006E000D9F80010484601F00F01B94208D980F846
:1006F0000080006800F00F00B84201D00120E9E757
:100700002878400705D52068E96820F4E0500843C0
:1007100020602878000706D52068296920F4604009
:1007200040EAC100206000F051F82168F02292FAFE
:10073000A2F201F0F001B2FA82F2D140064A515C15
:10074000C840064908600020FFF788FE0020C1E786
:10075000003C024008380240C21D00080000002092
:10076000014800687047000000000020084809495F
:10077000006809684FF4E05292FAA2F201F4E051E5
:10078000B2FA82F2D140044A515CC840704700007E
:100790000000002008380240C21D0008084809492E
:1007A000006809684FF4604292FAA2F201F46041D5
:1007B000B2FA82F2D140044A515CC840704700004E
:1007C0000000002008380240C21D000830B519485A
:1007D000006810F00C01184812D0441004290ED003
:1007E00008290DD11349091F0A6802F03F030A685E
:1007F000550247F6C07204D5B4FBF3F003E020467F
:1008000030BDB0FBF3F00B680968134092FAA2F216
:10081000B2FA82F2D34058434FF4403292FAA2F235
:1008200001F44031B2FA82F2D140491C4900B0FBD8
:10083000F1F030BD083802400024F4002DE9F84FF3
:100840000446DFF8CC820078A8F1040BC007ABF1B6
:10085000040537D0D8F800104046C1F381010129C2
:1008600008D00068C0F3810002280AD1DBF800003C
:10087000400206D52868800324D56068002878D017
:1008800020E0A3492079891F0870606868B1FFF7EC
:10089000BDFD064605E000BFFFF7B8FD801B6428DC
:1008A00068D828688003F7D50CE0FFF7AFFD06464F
:1008B00005E000BFFFF7AAFD801B6428F0D8286878
:1008C0008003F7D42078934E80074FF0010A4FF051
:1008D000000742D5D8F80010404611F00C0F08D0A0
:1008E0000068C0F3810002280AD1DBF80000400252
:1008F00006D42868800714D5E068012839D110E0B3
:10090000E068D8B1C6F800A0FFF780FD814605E099
:10091000FFF77CFDA0EB09000228C1D828688007FA
:10092000F6D52868F82292FAA2F22169B2FA82F288
:1009300020F0F8009140084328600EE03760FFF790
:1009400065FD814606E000BFFFF760FDA0EB0900F2
:1009500002280FD828688007F6D42078000728D509
:100960006D486169A1B1C0F800A0FFF74FFD814655
:1009700008E0CAE079E000BFFFF748FDA0EB0900FE
:10098000022872D862486C3000688007F4D510E005
:100990000760FFF73BFD814606E000BFFFF736FD2D
:1009A000A0EB0900022860D859486C300068800725
:1009B000F4D42078400749D555483830016841F0D3
:1009C00080510160006800F0805000905348016839
:1009D00041F480710160FFF719FD814606E000BF18
:1009E000FFF714FDA0EB090002283ED84B48006831
:1009F000C005F5D5DFF81891207A09F1680989F862
:100A00000000A06888B1FFF701FD009008E000BF7A
:100A1000FFF7FCFC0099411A41F2883081426CD802
:100A2000D9F800008007F3D510E0FFF7EFFC009045
:100A300008E000BFFFF7EAFC0099411A41F2883054
:100A400081425AD8D9F800008007F3D4A069E0B3F6
:100A5000D8F80010C1F38101022956D00228376668
:100A600004D0FFF7D3FC04464AE046E0FFF7CEFC93
:100A7000074604E0FFF7CAFCC01B02283DD82868DF
:100A80008001F7D4D4E90701084347F6C07292FA0F
:100A9000A2F2616AB2FA82F29140A26A4FF0FF3389
:100AA00003EB52024FF4403393FAA3F3B3FA83F308
:100AB0009A40114308434FF0706292FAA2F2E16A41
:100AC000B2FA82F29140084300E01CE0CBF800004B
:100AD000C6F860A0FFF79AFC044604E0FFF796FC16
:100AE000001B022809D828688001F7D50BE000BF59
:100AF000FFF78CFC001B022802D90320BDE8F88F09
:100B000028688001F4D40020F8E70120F6E700000F
:100B10000838024000004742800E47420070004003
:100B20004FF0E0210428086903D020F00400086198
:100B3000704740F00400FAE7704710B5401EB0F16E
:100B4000807F01D3012010BD4FF0E02460610F21B0
:100B5000601700F049FC0020A06107202061002000
:100B600010BD10B5FFF7E8FF10BD10B5040003D0AD
:100B700094F8390010B107E0012010BD002084F87E
:100B80003800204600F00CF8022084F83900211DBE
:100B9000206800F0C1FC012084F83900002010BD5D
:100BA00008B50C4A01680C48914207D1016841F030
:100BB00080010160006800F0800009E0074A91426E
:100BC00007D1016841F480710160006800F4807011
:100BD000009008BD001C004040380240002000404A
:100BE00030B50C4D03680021022409220A4885B063
:100BF000AB4201D1831503E0084DAB4208D15B1530
:100C00000093CDE90141CDE903126946FFF712FBDC
:100C100005B030BD001C0040001402400020004020
:100C200070B5044690F838000D4601280DD0012615
:100C300084F83860022084F8390042B1042A18D0C0
:100C4000082A2AD00C2A4DD139E0022070BD206834
:100C500000F0CEFC2068816941F0080181612068C4
:100C6000816921F004018161206881692A69114349
:100C700011E0206800F0E8FC2068816941F400611F
:100C800081612068816921F48061816120688169C6
:100C90002A6941EA0221816124E0206800F006FD12
:100CA0002068C16941F00801C1612068C16921F073
:100CB0000401C1612068C1692A69114311E02068FB
:100CC00000F024FD2068C16941F40061C161206821
:100CD000C16921F48061C1612068C1692A6941EA62
:100CE0000221C16184F83960002084F8380070BDA9
:100CF00010B5040003D094F8390010B107E00120CA
:100D000010BD002084F83800204600F00CF80220C6
:100D100084F83900211D206800F0FEFB012084F8D2
:100D20003900002010BD704710B50446006801224C
:100D300000F052FC08492068884202D007498842E6
:100D400003D1416C41F4004141642068016841F0E5
:100D500001010160002010BD0000014000040140BD
:100D6000704710F8391F40780843704770B5026823
:100D700004461068D168536910F00F0F51D003F08A
:100D8000010501F4907635435DD0C20705D0CA0550
:100D900003D5E26B42F00102E263420705D5DA07B0
:100DA00003D0E26B42F00202E263820705D5DA0764
:100DB00003D0E26B42F00402E263020705D5DA07D2
:100DC00003D0E26B42F00802E263E26B002A34D007
:100DD000800604D5880602D5204600F0D5FC2068A0
:100DE0004069E16BC0F3801001F008010143204627
:100DF00024D000F0BBFC2068416949061AD541693E
:100E000021F040014161606BA0B11B490165606B3D
:100E1000FFF7FDF9002810D0606B016DBDE8704050
:100E2000084783060FD58B060DD52046BDE87040D8
:100E300000F0AABC2046FFF793FF70BDFFF790FFBC
:100E40000020E06370BD030606D50B0604D52046DE
:100E5000BDE8704000F034BE4006F3D54806F1D539
:100E6000D168204621F04001D160202184F839105A
:100E700000F0A5F970BD00005D17000870B5040012
:100E800004D094F83900002510B106E0012070BDAF
:100E900084F83850204600F023F8242084F83900E4
:100EA0002068C16821F40051C160204600F0B2FC06
:100EB0002068016921F4904101612068416921F0B5
:100EC0002A0141612068C16841F40051C160E563B5
:100ED000202084F8390084F83A00002070BD00001A
:100EE00070B533490268022401250726314886B0CF
:100EF0008A4218D130490A6842F010020A60096833
:100F000001F0100105914FF4C0618DE83200CDE988
:100F100003466946FFF78EF9002201212520FFF7DD
:100F2000E9FA25201AE02449244B091F9A4219D1D5
:100F30000A6842F400320A60096801F40031059140
:100F40000C218DE83200CDE903466946FFF772F9BE
:100F5000002202212620FFF7CDFA2620FFF7BEFA55
:100F600006B070BD16488242FAD1086840F480206D
:100F700008600868694600F48020059010158DE827
:100F80003100CDE903460F48FFF754F94FF40070E4
:100F90008DE83100CDE9034669460B48FFF74AF971
:100FA000002203212720FFF7A5FA2720D6E700001B
:100FB000001001400000024044380240004400405C
:100FC0000048004000040240000C024090F83A3013
:100FD000202B1DD1D1B1CAB190F83830012B17D0D8
:100FE00081628285C2850021C163222280F83A2075
:100FF00080F8381001684A6942F001024A610068CD
:10100000C16841F49071C1600020704701207047B1
:1010100002207047F0B500682C4A0021904222D18E
:101020002B48DFF8B4C001250078BCF80040294EF9
:101030002A4F2B4AC4F30D032A280DD023280ED0A3
:101040001588012D07D1F854641CA0B2ACF800003B
:10105000C72800D91180F0BD15803180F3E7F8541E
:1010600011803580F0BD1F4A90420FD11E48028882
:101070001304F7D41D4B54041B7812D40D2B21D02C
:10108000C2F30D041A4D16E00180F0BD194A9042DA
:10109000FBD1194802881304F7D4184B54041B7869
:1010A00004D50A2BF0D142F40041EDE70D2B09D015
:1010B000134DC2F30D04521C92B22B550280C72A65
:1010C000E2D8F0BD42F48041DEE7000000100140AC
:1010D000160000201A0000200C0000202000002034
:1010E00014000020004400400E00002017000020E3
:1010F000E8000020004800401000002018000020F8
:10110000B00100202DE9F843044690F839001E464E
:1011100017460D46202850D135B32FB394F8380028
:1011200001284AD0012084F838004FF00008C4F8A4
:101130003C80212084F83900FFF768F9A784E78410
:1011400081464FF48057E08C4B46401EE084A068F7
:101150004FF00002B8424FF080012046009611D1B6
:1011600000F0DFFC00BB02E00120BDE8F883288826
:10117000C0F3080120684160206908B16D1C08E0D7
:10118000AD1C06E000F0CDFC70B9216815F8010B2C
:101190004860E08C0028D6D14B46002240212046F2
:1011A000009600F0BEFC08B10320DEE7202084F8A2
:1011B000390084F838800020D7E70220D5E770474F
:1011C000FEE700001E4810B5016886B041F020011E
:1011D0000160016801F020010591016841F0800182
:1011E0000160016801F080010591016841F0010191
:1011F0000160016801F001010591016841F00201FF
:101200000160016801F002010591016841F00801E7
:10121000016000680B4C00F00800059000220121DD
:101220002046FFF7EDF801210220CDE902100091E0
:10123000019169462046FEF7FDFF06B010BD000093
:10124000303802400004024010B5184888B01649F2
:10125000016059210024C0E9011440F2F311C0E9F2
:101260000314FFF782FC08B1FEF7D0FF0F48FFF729
:101270003FFD08B1FEF7CAFF60200090F920CDE9DC
:1012800001040022694609480494FFF7C9FC08B12B
:10129000FEF7BCFF0548FFF7A3FC00210348FFF75A
:1012A00043FD08B010BD0000001C004038030020C2
:1012B00010B5184888B01649016059210024C0E9CA
:1012C000011440F2F311C0E90314FFF74EFC08B11A
:1012D000FEF79CFF0F48FFF70BFD08B1FEF796FFE6
:1012E00060200090F920CDE90104002269460948F8
:1012F0000494FFF795FC08B1FEF788FF0548FFF757
:101300006FFC00210348FFF70FFD08B010BD00007F
:1013100000200040740300200E4810B50C49016005
:101320004FF4E1314160002181600C22C160C0E9CD
:1013300004128161C161FFF7A1FD08B1FEF766FFEC
:10134000BDE81040012204490248FFF73FBE0000FB
:101350000010014078020020160000200E4810B551
:101360000C4901604FF4E1314160002181600C22A1
:10137000C160C0E904128161C161FFF77FFD08B15E
:10138000FEF744FFBDE81040012204490248FFF780
:101390001DBE000000440040B802002017000020DD
:1013A0000E4810B50C4901604FF416514160002100
:1013B00081600C22C160C0E904128161C161FFF744
:1013C0005DFD08B1FEF722FFBDE81040012204498F
:1013D0000248FFF7FBBD000000480040F802002073
:1013E00018000020FEE770470907090E002806DAFA
:1013F00000F00F0000F1E02080F8141D704700F1AC
:10140000E02080F8001470477047704710B5FFF770
:1014100003F8BDE81040FFF7A4BB000030B5274833
:1014200093B00025016841F080510160006800F030
:10143000805011902248016841F4404101600068E9
:10144000022400F44040119001200090019080059A
:10145000CDE90640082008904FF4B470CDE90904A6
:1014600004200B906846FFF7E9F900B1FEE7FFF7AB
:1014700073F800B1FEE70CA90F2081E831004FF4AA
:10148000A0500F904FF48050109005210CA8FFF74A
:10149000A9F800B1FEE7FFF763F94FF47A71B0FBEA
:1014A000F1F0FFF74AFB0420FFF73AFB0022114658
:1014B000501EFFF71FF813B030BD00004038024047
:1014C000007000401048016841F4700101600F484D
:1014D000016841F0010101600C4A002108321160ED
:1014E00002680B4B1A400260031D0A4A1A60026828
:1014F00022F48022026005480C300160024958063F
:10150000803908607047000088ED00E00038024034
:10151000FFFFF6FE10300024F0B50268234B244D87
:10152000244E254F254C4FF0804C984209D0604501
:1015300007D0A84205D0B04203D0B84201D0A042A3
:1015400004D122F0700E4A6842EA0E0298421BD083
:10155000604519D0A84217D0B04215D0B84213D078
:10156000A04211D0164DA8420ED0164DA8420BD065
:10157000154DA84208D0154DA84205D0144DA842DB
:1015800002D0144DA84203D122F44075CA682A4300
:1015900002608A68C2620A688262984201D0A042F0
:1015A00001D10969016301214161F0BD00000140E1
:1015B0000004004000080040000C0040000401400E
:1015C0000040014000440140004801400018004034
:1015D000001C00400020004010B50123046A8B402D
:1015E0009C430462036A8A401343036210BD0000F7
:1015F00030B5026A22F001020262026A436884691D
:101600000D6824F07304254322F002048A68224303
:101610000B4CA04202D00B4CA0420BD122F008048C
:10162000CA6823F4407322434C6922F004021C432D
:101630008B6923434360856149684163026230BD21
:10164000000001400004014030B5026A22F010029F
:101650000262026A436884690D6824F4E64444EA3D
:1016600005248D6822F0200242EA05120D4DA842A1
:1016700002D00D4DA8420ED1CD6822F0800242EA80
:1016800005124D6923F4406343EA85038D6922F016
:10169000400243EA850343608461496881630262D2
:1016A00030BD0000000001400004014030B5026A76
:1016B00022F480720262036A4268C46923F40073F0
:1016C00024F073050C682C438D6843EA05230D4D07
:1016D000A84202D00C4DA8420ED1CD6823F400637D
:1016E00043EA05234D6922F4405242EA05128D690E
:1016F00023F4806342EA05124260C4614968C16311
:10170000036230BD000001400004014030B5026AB0
:1017100022F480520262046A4268C3690D6823F4AD
:10172000E64343EA05238D6824F4005444EA053473
:10173000084DA84202D0084DA84204D14D6922F4B8
:10174000804242EA85124260C361496801640462D2
:1017500030BD0000000001400004014010B5806B66
:101760000021C185C184FFF7FBFA10BD0168CA687A
:1017700022F49072CA6001684A6922F001024A614B
:10178000202180F83A10704710B590F83A102229BD
:1017900001D0022010BD8168B1F5805F11D00169D0
:1017A000002901681FD0496801F07F03816A4A1C43
:1017B00082620B70C18D491E0904090CC18518D0C5
:1017C00026E00269816A002A0268526805D0D2B216
:1017D0000A80816A491C8162ECE7C2F308020A8030
:1017E000816A891CF7E74A68816A4B1C83620A7028
:1017F000E0E70168CA6822F49072CA6001684A6929
:1018000022F001024A61202180F83A10FFF702FC21
:10181000002010BD2DE9F04104460068016921F463
:101820004052E168114301612168C86849F20C62C5
:1018300090432369A268E5691A4363692B431A43FD
:101840000243CA602168486920F44072A0691043CD
:101850004861E1696425B1F5004F9748974A2168CE
:101860004FF032083FD0914201D081427CD1FEF747
:1018700095FF00EBC00101EB001061688900B0FB2F
:10188000F1F6FEF78BFF00EBC00101EB0010616881
:101890008900B0FBF1F0B0FBF5F06FF018014843A0
:1018A00006EB800108EB0110B0FBF5F000F0F0064C
:1018B000FEF774FF00EBC00101EB001061688900C6
:1018C000B0FBF1F0B0FBF5F006EB0016FEF766FF9B
:1018D00000EBC00101EB001061688900B0FBF1F77B
:1018E000FEF75CFFD2E0914201D081423DD1FEF78C
:1018F00055FF00EBC00101EB001061684900B0FB2F
:10190000F1F0B0FBF5F00601FEF748FF00EBC00177
:1019100001EB001061684900B0FBF1F7FEF73EFFF4
:1019200000EBC00101EB001061684900B0FBF1F071
:10193000B0FBF5F06FF01801484307EB800108EBAE
:10194000C100B0FBF5F000F0F80006EB4006FEF732
:1019500025FF00EBC00101EB001061684900B0FBFE
:10196000F1F7FEF71BFF3CE055E0FEF7FFFE00EB52
:10197000C00101EB001061684900B0FBF1F0B0FB61
:10198000F5F00601FEF7F2FE00EBC00101EB0010DE
:1019900061684900B0FBF1F7FEF7E8FE00EBC0011B
:1019A00001EB001061684900B0FBF1F0B0FBF5F00D
:1019B0006FF01801484307EB800108EBC100B0FB52
:1019C000F5F000F0F80006EB4006FEF7CFFE00EB66
:1019D000C00101EB001061684900B0FBF1F7FEF7B0
:1019E000C5FE00EBC00101EB001061684900B0FBCF
:1019F000F1F0B0FBF5F06FF01801484307EB800100
:101A000008EBC100B0FBF5F000F00700216830449E
:101A10008860BDE8F081FEF7A9FE00EBC00101EB94
:101A2000001061688900B0FBF1F6FEF79FFE00EB45
:101A3000C00101EB001061688900B0FBF1F0B0FB60
:101A4000F5F06FF01801484306EB800108EB011038
:101A5000B0FBF5F000F0F006FEF788FE00EBC001E9
:101A600001EB001061688900B0FBF1F0B0FBF5F00C
:101A700006EB0016FEF77AFE00EBC00101EB00104A
:101A800061688900B0FBF1F7FEF770FE00EBC00162
:101A900001EB001061688900B0FBF1F0B0FBF5F0DC
:101AA0006FF01801484307EB800108EB0110B0FB11
:101AB000F5F000F00F00A9E700140140001001400C
:101AC00090F83910212901D0022070478168B1F5C2
:101AD000805F016A0BD04A1C02620268097851607B
:101AE000C18C491E0904090CC1840ED017E0098875
:101AF0000268C1F30801516001690029016A02D03E
:101B0000491C0162ECE7891CFBE70168CA6822F006
:101B10008002CA600068C16841F04001C1600020D5
:101B200070472DE9F041984617460E460446069D3B
:101B30001DE0681C1BD02DB1FEF768FCA0EB08006F
:101B4000A84214D92068C16821F4D071C16020680E
:101B5000416921F001014161202084F8390084F8B5
:101B60003A00002084F838000320BDE8F0812068A6
:101B7000006836EA000004D00020B842D9D0002026
:101B8000F3E70120F9E7000010B50848FFF7EEF889
:101B90000648FFF7E6F82028FAD101220449034855
:101BA000FFF714FA0028F8D110BD000078020020D9
:101BB0001600002010B50848FFF7D8F80648FFF7D0
:101BC000D0F82028FAD1012204490348FFF7FEF992
:101BD0000028F8D110BD0000B80200201700002036
:101BE00010B50848FFF7C2F80648FFF7BAF82028F2
:101BF000FAD1012204490348FFF7E8F90028F8D197
:101C000010BD0000F80200201800002070B51A4C2A
:101C1000208801280BD019490888401C80B2088010
:101C2000C821B0FBF1F201FB1200E0B11EE0144D3F
:101C3000144E2878307014A000F046F832784FF433
:101C40007A7316491648521CFFF75CFA144800686C
:101C50000168C9434906FBD412A000F035F8002002
:101C60002080288070BD11A000F02EF8BDE87040E3
:101C70000A2000F05BB800001A00002012000020CB
:101C80000C000020190000200D0A746865206E65A4
:101C900077732069733A0D0A0000000020000020CD
:101CA000780200200D0A0D0A00000000706C6561CA
:101CB000736520696E7075742063686172200D0A07
:101CC00000000000FEE70000014A024900F013B8DE
:101CD0007D1D00081C00002002E008C8121F08C17A
:101CE000002AFAD170477047002001E001C1121F9D
:101CF000002AFBD170472DE9F04116460F460446F5
:101D0000002503E03946B047641C6D1C207800288C
:101D1000F8D12846BDE8F08110B504460420FEF74E
:101D2000FFFE0148046010BD0400002070B50546A8
:101D300000244FF47A7603E0304600F005F8641C86
:101D4000AC42F9D370BD000070B54FF0E024002222
:101D500065690949A36909684843A1699942FCD0AA
:101D600002D2A3EB010302E0A5EB010633441A44BF
:101D70000B468242F1D370BD0400002013B54FF62C
:101D8000FF73012269460248FFF7BCF900981CBDA9
:101D900078020020FEF748FBFFF740FBB420FFF776
:101DA000BBFFFFF70FFAFFF7B7FAFFF7D7FAFFF716
:101DB000F7FAFFF749FAFFF77BFA00BFFFF726FFB4
:101DC000FCE700000000010203040102030406070F
:101DD00008090000F41D0008000000202000000099
:101DE000D81C0008141E00082000002090070000E6
:101DF000E81C00080024F4000000000000000000BF
:101E000000000000000000000000000000000000D2
:041E100000000000CE
:04000005080001AD41
:00000001FF
